{
  "address": "0xDc64a140Aa3E981100a9becA4E685f962f0cF6C9",
  "abi": [
    {
      "inputs": [
        {
          "internalType": "address",
          "name": "priceFeedAddress",
          "type": "address"
        }
      ],
      "stateMutability": "nonpayable",
      "type": "constructor"
    },
    {
      "inputs": [],
      "name": "FundMe__NotOwner",
      "type": "error"
    },
    {
      "inputs": [],
      "name": "FundMe__NotSendEnoughETH",
      "type": "error"
    },
    {
      "inputs": [],
      "name": "FundMe__WithdrawFail",
      "type": "error"
    },
    {
      "inputs": [],
      "name": "fund",
      "outputs": [],
      "stateMutability": "payable",
      "type": "function"
    },
    {
      "inputs": [
        {
          "internalType": "address",
          "name": "_address",
          "type": "address"
        }
      ],
      "name": "getAddressToContribution",
      "outputs": [
        {
          "internalType": "uint256",
          "name": "",
          "type": "uint256"
        }
      ],
      "stateMutability": "view",
      "type": "function"
    },
    {
      "inputs": [
        {
          "internalType": "uint256",
          "name": "_index",
          "type": "uint256"
        }
      ],
      "name": "getFunders",
      "outputs": [
        {
          "internalType": "address",
          "name": "",
          "type": "address"
        }
      ],
      "stateMutability": "view",
      "type": "function"
    },
    {
      "inputs": [],
      "name": "getOwner",
      "outputs": [
        {
          "internalType": "address",
          "name": "",
          "type": "address"
        }
      ],
      "stateMutability": "view",
      "type": "function"
    },
    {
      "inputs": [],
      "name": "getPriceFeed",
      "outputs": [
        {
          "internalType": "contract AggregatorV3Interface",
          "name": "",
          "type": "address"
        }
      ],
      "stateMutability": "view",
      "type": "function"
    },
    {
      "inputs": [],
      "name": "withdraw",
      "outputs": [],
      "stateMutability": "payable",
      "type": "function"
    }
  ],
  "transactionHash": "0x6475d7adc5b61d38250408a9e2a1ff153c583f3447234722473edad64b3e1a94",
  "args": [
    "0xCf7Ed3AccA5a467e9e704C703E8D87F634fB0Fc9"
  ],
  "numDeployments": 1,
  "solcInputHash": "9be20acf5e52de5ad68a54c1c2af8d33",
  "bytecode": "0x60a060405234801561001057600080fd5b50604051610f37380380610f3783398181016040528101906100329190610113565b3373ffffffffffffffffffffffffffffffffffffffff1660808173ffffffffffffffffffffffffffffffffffffffff1660601b8152505080600260006101000a81548173ffffffffffffffffffffffffffffffffffffffff021916908373ffffffffffffffffffffffffffffffffffffffff16021790555050610140565b600080fd5b600073ffffffffffffffffffffffffffffffffffffffff82169050919050565b60006100e0826100b5565b9050919050565b6100f0816100d5565b81146100fb57600080fd5b50565b60008151905061010d816100e7565b92915050565b600060208284031215610129576101286100b0565b5b6000610137848285016100fe565b91505092915050565b60805160601c610dcb61016c600039600081816101870152818161037d015261048d0152610dcb6000f3fe6080604052600436106100555760003560e01c80633a7b6c741461005a5780633ccfd60b1461009757806368f52016146100a1578063893d20e8146100de5780639e87a5cd14610109578063b60d428814610134575b600080fd5b34801561006657600080fd5b50610081600480360381019061007c91906107c4565b61013e565b60405161008e9190610832565b60405180910390f35b61009f610185565b005b3480156100ad57600080fd5b506100c860048036038101906100c39190610879565b610440565b6040516100d591906108b5565b60405180910390f35b3480156100ea57600080fd5b506100f3610489565b6040516101009190610832565b60405180910390f35b34801561011557600080fd5b5061011e6104b1565b60405161012b919061092f565b60405180910390f35b61013c6104db565b005b60008082815481106101535761015261094a565b5b9060005260206000200160009054906101000a900473ffffffffffffffffffffffffffffffffffffffff169050919050565b7f000000000000000000000000000000000000000000000000000000000000000073ffffffffffffffffffffffffffffffffffffffff163373ffffffffffffffffffffffffffffffffffffffff161461020a576040517f579610db00000000000000000000000000000000000000000000000000000000815260040160405180910390fd5b60008080548060200260200160405190810160405280929190818152602001828054801561028d57602002820191906000526020600020905b8160009054906101000a900473ffffffffffffffffffffffffffffffffffffffff1673ffffffffffffffffffffffffffffffffffffffff1681526020019060010190808311610243575b5050505050905060005b81518110156103185760008282815181106102b5576102b461094a565b5b602002602001015190506000600160008373ffffffffffffffffffffffffffffffffffffffff1673ffffffffffffffffffffffffffffffffffffffff16815260200190815260200160002081905550508080610310906109a8565b915050610297565b50600067ffffffffffffffff811115610334576103336109f1565b5b6040519080825280602002602001820160405280156103625781602001602082028036833780820191505090505b50600090805190602001906103789291906106e2565b5060007f000000000000000000000000000000000000000000000000000000000000000073ffffffffffffffffffffffffffffffffffffffff16476040516103bf90610a51565b60006040518083038185875af1925050503d80600081146103fc576040519150601f19603f3d011682016040523d82523d6000602084013e610401565b606091505b505090508061043c576040517f3f542d5000000000000000000000000000000000000000000000000000000000815260040160405180910390fd5b5050565b6000600160008373ffffffffffffffffffffffffffffffffffffffff1673ffffffffffffffffffffffffffffffffffffffff168152602001908152602001600020549050919050565b60007f0000000000000000000000000000000000000000000000000000000000000000905090565b6000600260009054906101000a900473ffffffffffffffffffffffffffffffffffffffff16905090565b678ac7230489e80000610519600260009054906101000a900473ffffffffffffffffffffffffffffffffffffffff163461060c90919063ffffffff16565b1015610551576040517fbe58ef6a00000000000000000000000000000000000000000000000000000000815260040160405180910390fd5b34600160003373ffffffffffffffffffffffffffffffffffffffff1673ffffffffffffffffffffffffffffffffffffffff16815260200190815260200160002060008282546105a09190610a66565b925050819055506000339080600181540180825580915050600190039060005260206000200160009091909190916101000a81548173ffffffffffffffffffffffffffffffffffffffff021916908373ffffffffffffffffffffffffffffffffffffffff160217905550565b60008061061883610642565b9050670de0b6b3a7640000818561062f9190610abc565b6106399190610b45565b91505092915050565b6000808273ffffffffffffffffffffffffffffffffffffffff1663feaf968c6040518163ffffffff1660e01b815260040160a06040518083038186803b15801561068b57600080fd5b505afa15801561069f573d6000803e3d6000fd5b505050506040513d601f19601f820116820180604052508101906106c39190610c03565b5050509150506402540be400816106da9190610c7e565b915050919050565b82805482825590600052602060002090810192821561075b579160200282015b8281111561075a5782518260006101000a81548173ffffffffffffffffffffffffffffffffffffffff021916908373ffffffffffffffffffffffffffffffffffffffff16021790555091602001919060010190610702565b5b509050610768919061076c565b5090565b5b8082111561078557600081600090555060010161076d565b5090565b600080fd5b6000819050919050565b6107a18161078e565b81146107ac57600080fd5b50565b6000813590506107be81610798565b92915050565b6000602082840312156107da576107d9610789565b5b60006107e8848285016107af565b91505092915050565b600073ffffffffffffffffffffffffffffffffffffffff82169050919050565b600061081c826107f1565b9050919050565b61082c81610811565b82525050565b60006020820190506108476000830184610823565b92915050565b61085681610811565b811461086157600080fd5b50565b6000813590506108738161084d565b92915050565b60006020828403121561088f5761088e610789565b5b600061089d84828501610864565b91505092915050565b6108af8161078e565b82525050565b60006020820190506108ca60008301846108a6565b92915050565b6000819050919050565b60006108f56108f06108eb846107f1565b6108d0565b6107f1565b9050919050565b6000610907826108da565b9050919050565b6000610919826108fc565b9050919050565b6109298161090e565b82525050565b60006020820190506109446000830184610920565b92915050565b7f4e487b7100000000000000000000000000000000000000000000000000000000600052603260045260246000fd5b7f4e487b7100000000000000000000000000000000000000000000000000000000600052601160045260246000fd5b60006109b38261078e565b91507fffffffffffffffffffffffffffffffffffffffffffffffffffffffffffffffff8214156109e6576109e5610979565b5b600182019050919050565b7f4e487b7100000000000000000000000000000000000000000000000000000000600052604160045260246000fd5b600081905092915050565b50565b6000610a3b600083610a20565b9150610a4682610a2b565b600082019050919050565b6000610a5c82610a2e565b9150819050919050565b6000610a718261078e565b9150610a7c8361078e565b9250827fffffffffffffffffffffffffffffffffffffffffffffffffffffffffffffffff03821115610ab157610ab0610979565b5b828201905092915050565b6000610ac78261078e565b9150610ad28361078e565b9250817fffffffffffffffffffffffffffffffffffffffffffffffffffffffffffffffff0483118215151615610b0b57610b0a610979565b5b828202905092915050565b7f4e487b7100000000000000000000000000000000000000000000000000000000600052601260045260246000fd5b6000610b508261078e565b9150610b5b8361078e565b925082610b6b57610b6a610b16565b5b828204905092915050565b600069ffffffffffffffffffff82169050919050565b610b9581610b76565b8114610ba057600080fd5b50565b600081519050610bb281610b8c565b92915050565b6000819050919050565b610bcb81610bb8565b8114610bd657600080fd5b50565b600081519050610be881610bc2565b92915050565b600081519050610bfd81610798565b92915050565b600080600080600060a08688031215610c1f57610c1e610789565b5b6000610c2d88828901610ba3565b9550506020610c3e88828901610bd9565b9450506040610c4f88828901610bee565b9350506060610c6088828901610bee565b9250506080610c7188828901610ba3565b9150509295509295909350565b6000610c8982610bb8565b9150610c9483610bb8565b9250827f7fffffffffffffffffffffffffffffffffffffffffffffffffffffffffffffff0482116000841360008413161615610cd357610cd2610979565b5b817f80000000000000000000000000000000000000000000000000000000000000000583126000841260008413161615610d1057610d0f610979565b5b827f80000000000000000000000000000000000000000000000000000000000000000582126000841360008412161615610d4d57610d4c610979565b5b827f7fffffffffffffffffffffffffffffffffffffffffffffffffffffffffffffff0582126000841260008412161615610d8a57610d89610979565b5b82820290509291505056fea26469706673582212204bb794934627374778133a7abe6c249e30949d5bacd4ca6889f48b0fa9f008bf64736f6c63430008080033",
  "devdoc": {
    "author": "Chris Lin",
    "details": "This implements price feed as our library",
    "kind": "dev",
    "methods": {},
    "title": "A contract for crowd funding",
    "version": 1
  },
  "userdoc": {
    "kind": "user",
    "methods": {},
    "notice": "This contract is to demo a simple funding contract",
    "version": 1
  },
  "storageLayout": {
    "storage": [
      {
        "astId": 326,
        "contract": "contracts/FundMe.sol:FundMe",
        "label": "s_funders",
        "offset": 0,
        "slot": "0",
        "type": "t_array(t_address)dyn_storage"
      },
      {
        "astId": 330,
        "contract": "contracts/FundMe.sol:FundMe",
        "label": "s_funderToContribution",
        "offset": 0,
        "slot": "1",
        "type": "t_mapping(t_address,t_uint256)"
      },
      {
        "astId": 340,
        "contract": "contracts/FundMe.sol:FundMe",
        "label": "s_priceFeed",
        "offset": 0,
        "slot": "2",
        "type": "t_contract(AggregatorV3Interface)102"
      }
    ],
    "types": {
      "t_address": {
        "encoding": "inplace",
        "label": "address",
        "numberOfBytes": "20"
      },
      "t_array(t_address)dyn_storage": {
        "base": "t_address",
        "encoding": "dynamic_array",
        "label": "address[]",
        "numberOfBytes": "32"
      },
      "t_contract(AggregatorV3Interface)102": {
        "encoding": "inplace",
        "label": "contract AggregatorV3Interface",
        "numberOfBytes": "20"
      },
      "t_mapping(t_address,t_uint256)": {
        "encoding": "mapping",
        "key": "t_address",
        "label": "mapping(address => uint256)",
        "numberOfBytes": "32",
        "value": "t_uint256"
      },
      "t_uint256": {
        "encoding": "inplace",
        "label": "uint256",
        "numberOfBytes": "32"
      }
    }
  }
}